{
  "contractName": "Ad",
  "abi": [
    {
      "constant": true,
      "inputs": [],
      "name": "owner",
      "outputs": [
        {
          "name": "",
          "type": "address"
        }
      ],
      "payable": false,
      "stateMutability": "view",
      "type": "function"
    },
    {
      "constant": false,
      "inputs": [
        {
          "name": "newOwner",
          "type": "address"
        }
      ],
      "name": "transferOwnership",
      "outputs": [],
      "payable": false,
      "stateMutability": "nonpayable",
      "type": "function"
    },
    {
      "anonymous": false,
      "inputs": [],
      "name": "BlockBought",
      "type": "event"
    },
    {
      "anonymous": false,
      "inputs": [
        {
          "indexed": true,
          "name": "prevOwner",
          "type": "address"
        },
        {
          "indexed": true,
          "name": "newOwner",
          "type": "address"
        }
      ],
      "name": "OwnershipTransferred",
      "type": "event"
    },
    {
      "constant": false,
      "inputs": [
        {
          "name": "row",
          "type": "uint256"
        },
        {
          "name": "col",
          "type": "uint256"
        },
        {
          "name": "_img",
          "type": "string"
        },
        {
          "name": "_redirect",
          "type": "string"
        }
      ],
      "name": "buyBlock",
      "outputs": [],
      "payable": true,
      "stateMutability": "payable",
      "type": "function"
    },
    {
      "constant": false,
      "inputs": [
        {
          "name": "destination",
          "type": "address"
        },
        {
          "name": "amount",
          "type": "uint256"
        }
      ],
      "name": "withdraw",
      "outputs": [],
      "payable": false,
      "stateMutability": "nonpayable",
      "type": "function"
    },
    {
      "constant": true,
      "inputs": [
        {
          "name": "row",
          "type": "uint256"
        },
        {
          "name": "col",
          "type": "uint256"
        }
      ],
      "name": "getAd",
      "outputs": [
        {
          "name": "",
          "type": "bool"
        },
        {
          "name": "",
          "type": "string"
        },
        {
          "name": "",
          "type": "string"
        }
      ],
      "payable": false,
      "stateMutability": "view",
      "type": "function"
    }
  ],
  "bytecode": "0x6080604052670de0b6b3a7640000600155336000806101000a81548173ffffffffffffffffffffffffffffffffffffffff021916908373ffffffffffffffffffffffffffffffffffffffff1602179055506109568061005f6000396000f30060806040526004361061006d576000357c0100000000000000000000000000000000000000000000000000000000900463ffffffff16806329e10c131461007257806383a5b62c146101995780638da5cb5b1461024f578063f2fde38b146102a6578063f3fef3a3146102e9575b600080fd5b34801561007e57600080fd5b506100a76004803603810190808035906020019092919080359060200190929190505050610336565b60405180841515151581526020018060200180602001838103835285818151815260200191508051906020019080838360005b838110156100f55780820151818401526020810190506100da565b50505050905090810190601f1680156101225780820380516001836020036101000a031916815260200191505b50838103825284818151815260200191508051906020019080838360005b8381101561015b578082015181840152602081019050610140565b50505050905090810190601f1680156101885780820380516001836020036101000a031916815260200191505b509550505050505060405180910390f35b61024d6004803603810190808035906020019092919080359060200190929190803590602001908201803590602001908080601f0160208091040260200160405190810160405280939291908181526020018383808284378201915050505050509192919290803590602001908201803590602001908080601f0160208091040260200160405190810160405280939291908181526020018383808284378201915050505050509192919290505050610503565b005b34801561025b57600080fd5b50610264610603565b604051808273ffffffffffffffffffffffffffffffffffffffff1673ffffffffffffffffffffffffffffffffffffffff16815260200191505060405180910390f35b3480156102b257600080fd5b506102e7600480360381019080803573ffffffffffffffffffffffffffffffffffffffff169060200190929190505050610628565b005b3480156102f557600080fd5b50610334600480360381019080803573ffffffffffffffffffffffffffffffffffffffff1690602001909291908035906020019092919050505061077d565b005b6000606080600285600a8110151561034a57fe5b601e020184600a8110151561035b57fe5b6003020160000160009054906101000a900460ff16600286600a8110151561037f57fe5b601e020185600a8110151561039057fe5b60030201600101600287600a811015156103a657fe5b601e020186600a811015156103b757fe5b60030201600201818054600181600116156101000203166002900480601f0160208091040260200160405190810160405280929190818152602001828054600181600116156101000203166002900480156104535780601f1061042857610100808354040283529160200191610453565b820191906000526020600020905b81548152906001019060200180831161043657829003601f168201915b50505050509150808054600181600116156101000203166002900480601f0160208091040260200160405190810160405280929190818152602001828054600181600116156101000203166002900480156104ef5780601f106104c4576101008083540402835291602001916104ef565b820191906000526020600020905b8154815290600101906020018083116104d257829003601f168201915b505050505090509250925092509250925092565b60008484600282600a8110151561051657fe5b601e020181600a8110151561052757fe5b6003020160000160009054906101000a900460ff1615151561054857600080fd5b600154341015151561055957600080fd5b600287600a8110151561056857fe5b601e020186600a8110151561057957fe5b60030201925084836001019080519060200190610597929190610885565b50838360020190805190602001906105b0929190610885565b5060018360000160006101000a81548160ff0219169083151502179055507f1d70c4895042a7ec2c3cf46463d4562be761526691b9a0de4ed6c85b9f07844f60405160405180910390a150505050505050565b6000809054906101000a900473ffffffffffffffffffffffffffffffffffffffff1681565b6000809054906101000a900473ffffffffffffffffffffffffffffffffffffffff1673ffffffffffffffffffffffffffffffffffffffff163373ffffffffffffffffffffffffffffffffffffffff1614151561068357600080fd5b600073ffffffffffffffffffffffffffffffffffffffff168173ffffffffffffffffffffffffffffffffffffffff16141515156106bf57600080fd5b8073ffffffffffffffffffffffffffffffffffffffff166000809054906101000a900473ffffffffffffffffffffffffffffffffffffffff1673ffffffffffffffffffffffffffffffffffffffff167f8be0079c531659141344cd1fd0a4f28419497f9722a3daafe3b4186f6b6457e060405160405180910390a3806000806101000a81548173ffffffffffffffffffffffffffffffffffffffff021916908373ffffffffffffffffffffffffffffffffffffffff16021790555050565b6000809054906101000a900473ffffffffffffffffffffffffffffffffffffffff1673ffffffffffffffffffffffffffffffffffffffff163373ffffffffffffffffffffffffffffffffffffffff161415156107d857600080fd5b803073ffffffffffffffffffffffffffffffffffffffff1631101515156107fe57600080fd5b600073ffffffffffffffffffffffffffffffffffffffff168273ffffffffffffffffffffffffffffffffffffffff161415151561083a57600080fd5b8173ffffffffffffffffffffffffffffffffffffffff166108fc829081150290604051600060405180830381858888f19350505050158015610880573d6000803e3d6000fd5b505050565b828054600181600116156101000203166002900490600052602060002090601f016020900481019282601f106108c657805160ff19168380011785556108f4565b828001600101855582156108f4579182015b828111156108f35782518255916020019190600101906108d8565b5b5090506109019190610905565b5090565b61092791905b8082111561092357600081600090555060010161090b565b5090565b905600a165627a7a723058204c15fb86ec9ee5c33fa52f54627fcf4ad8f01e890bf337f9ed6e13420e8445390029",
  "source": "pragma solidity ^0.4.20;\n\nimport './Ownable.sol';\n\ncontract Ad is Ownable {\n\n\tevent BlockBought();\n\n\tuint price = 1000000000000000000;\n\n\tstruct Block {\n\t\tbool taken;\n\t\tstring imgLink;\n\t\tstring redirectLink;\n\t}\n\n\tBlock[10][10] blocks;\n\n\tmodifier isFree(uint row, uint col) {\n\t\trequire(!blocks[row][col].taken);\n\t\t_;\n\t}\n\n\tfunction buyBlock(uint row, uint col, string _img, string _redirect) payable public isFree(row, col) {\n\t\trequire(msg.value >= price);\n\t\tBlock b = blocks[row][col];\n\t\tb.imgLink = _img;\n\t\tb.redirectLink = _redirect;\n\t\tb.taken = true;\n\t\temit BlockBought();\n\n\t}\n\n\tfunction withdraw(address destination, uint amount) external onlyOwner {\n\t\trequire(address(this).balance >= amount);\n\t\trequire(destination != address(0));\n\t\tdestination.transfer(amount);\n\t}\n\n\tfunction getAd(uint row, uint col) public view returns (bool, string, string) {\n\t\treturn (blocks[row][col].taken, blocks[row][col].imgLink, blocks[row][col].redirectLink); \n\t}\n}",
  "sourcePath": "/home/hassan/Documents/pitt/blockchain/projs/4/contracts/Ad.sol",
  "compiler": {
    "name": "solc",
    "version": "0.4.24+commit.e67f0147.Emscripten.clang"
  },
  "schemaVersion": "2.0.1",
  "updatedAt": "2018-12-06T00:51:24.140Z"
}